:100000000C942A000C943F000C943F000C943F0089
:100010000C943F000C943F000C943F000C943F0064
:100020000C943F000C943F000C943F000C943F0054
:100030000C943F000C943F000C943F000C943F0044
:100040000C943F000C943F000C943F000C943F0034
:100050000C943F0011241FBECFE5D8E0DEBFCDBF1A
:1000600011E0A0E6B0E0EAE2FEE102C005900D92E8
:10007000A836B107D9F70E94C50E0C94130F0C9443
:100080000000EF92FF920F931F937B018C0120E001
:1000900030E040E05FE40E94ED0388238CF0C8016B
:1000A000B70120E030E040E05FE40E94B9010E9427
:1000B0004D049B01AC01205030404040504806C0E8
:1000C000C801B7010E944D049B01AC01B901CA01EE
:1000D0001F910F91FF90EF900895A0E0B0E0E3E74B
:1000E000F0E00C94DC0EDC012B01FA019C919230C3
:1000F00008F439C1EB018881823008F433C19430AF
:1001000069F4843009F02FC111969C91119789816F
:10011000981709F428C1A0E6B0E025C1843009F49D
:1001200021C18230A9F4923009F01DC19A01AD01BC
:1001300088E0EA010990AE01E90109929E0181502F
:10014000C1F7E201898111969C918923818308C1BD
:10015000923009F407C112962D903C901397EB0151
:100160008A819B811496AD90BD90CD90DC901797BD
:10017000EC80FD800E811F819101281B390BB90194
:1001800037FF04C066277727621B730B6032710547
:100190000CF061C0121613066CF537014801062EEB
:1001A00004C096948794779467940A94D2F721E0D8
:1001B00030E040E050E004C0220F331F441F551FC1
:1001C0006A95D2F721503040404050402E213F21C7
:1001D00040235123211531054105510521F021E02E
:1001E00030E040E050E079018A01E628F72808294C
:1001F00019293CC0232BD1F1260E371E35014601AB
:10020000062E04C096948794779467940A94D2F744
:1002100021E030E040E050E004C0220F331F441FD3
:10022000551F6A95D2F721503040404050402A2156
:100230003B214C215D21211531054105510521F05E
:1002400021E030E040E050E059016A01A628B728DB
:10025000C828D9280BC0821593052CF01C01AA24AC
:10026000BB24650103C0EE24FF24870111969C91F5
:10027000D20111968C91981709F445C0992339F051
:10028000A80197012A193B094C095D0906C0A6017E
:1002900095012E193F09400B510B57FD08C01182E3
:1002A0003382228224833583468357831DC081E0B5
:1002B00081833382228288279927DC01821B930B5A
:1002C000A40BB50B84839583A683B7830DC0220F3F
:1002D000331F441F551F24833583468357838281F0
:1002E000938101979383828324813581468157814D
:1002F000DA01C9010197A109B1098F5F9F4FAF4F83
:10030000BF4328F30BC0918333822282EA0CFB1C8B
:100310000C1D1D1DE482F5820683178383E0808314
:10032000248135814681578157FF1AC0C901AA2708
:1003300097FDA095BA2F81709070A070B0705695FF
:10034000479537952795822B932BA42BB52B848328
:100350009583A683B7838281938101969383828359
:10036000DF0101C0D201CD01CDB7DEB7E2E10C94CF
:10037000F80EA0E2B0E0EFEBF1E00C94E80E698338
:100380007A838B839C832D833E834F835887E9E058
:10039000EE2EF12CEC0EFD1ECE010196B7010E944F
:1003A0003E068E010F5E1F4FCE010596B8010E94DA
:1003B0003E068A8991E089278A8BC701B801AE0180
:1003C000475E5F4F0E946D000E946905A096E6E0BF
:1003D0000C94040FA0E2B0E0E0EFF1E00C94E80E22
:1003E00069837A838B839C832D833E834F835887D5
:1003F000F9E0EF2EF12CEC0EFD1ECE010196B701B7
:100400000E943E068E010F5E1F4FCE010596B80179
:100410000E943E06C701B801AE01475E5F4F0E94D1
:100420006D000E946905A096E6E00C94040FA0E21E
:10043000B0E0EDE1F2E00C94DC0E69837A838B830B
:100440009C832D833E834F835887CE010196BE0146
:10045000675F7F4F0E943E06CE010596BE016F5E2C
:100460007F4F0E943E069985923088F089898230BC
:10047000C8F0943019F4823051F404C0843029F467
:10048000923081F480E690E0C6C0923049F420E0DA
:100490009A858A89981321E02A87CE010996BBC0E4
:1004A000823049F420E09A858A89981321E02A8BCA
:1004B000CE014196B0C02D843E844F8458886D880B
:1004C0007E888F88988CEE24FF248701AA24BB2481
:1004D000650140E050E060E070E0E0E0F0E0C10184
:1004E00081709070892BE9F0E60CF71C081D191D2E
:1004F0009A01AB012A0D3B1D4C1D5D1D80E090E073
:10050000A0E0B0E0E614F7040805190520F481E046
:1005100090E0A0E0B0E0BA01A901480F591F6A1F9E
:100520007B1FAA0CBB1CCC1CDD1C97FE08C081E005
:1005300090E0A0E0B0E0A82AB92ACA2ADB2A3196C6
:10054000E032F10549F0660C771C881C991C569422
:10055000479437942794C3CFFA85EA892B893C893D
:100560008B859C85280F391F2E5F3F4F17C0CA010E
:1005700081709070892B61F016950795F794E79438
:1005800080E090E0A0E0B0E8E82AF92A0A2B1B2BD3
:1005900076956795579547952F5F3F4F77FDE7CF46
:1005A0000CC0440F551F661F771F17FD4160EE0CEE
:1005B000FF1C001F111F21503040403090E05907B0
:1005C00090E0690790E4790760F32B8F3C8FDB01A3
:1005D000CA018F779070A070B07080349105A1052A
:1005E000B10561F447FD0AC0E114F10401051105EC
:1005F00029F0405C5F4F6F4F7F4F40781A8EFE1797
:1006000011F081E08A8F4D8F5E8F6F8F78A383E02A
:10061000898FCE0149960E946905A096E2E10C946B
:10062000F80EA8E1B0E0E7E1F3E00C94E40E698392
:100630007A838B839C832D833E834F835887B9E0D5
:10064000EB2EF12CEC0EFD1ECE010196B7010E949F
:100650003E068E010F5E1F4FCE010596B8010E9427
:100660003E062985223008F47EC03989323010F4E4
:10067000B8017CC08A859A8989278A87243011F03D
:10068000223031F4231709F06EC060E670E06EC0CE
:10069000343039F41D861E861F86188A1C861B86F8
:1006A00004C0323021F484E08987B7015FC02B8514
:1006B0003C858B899C89281B390B3C872B87ED84D3
:1006C000FE840F851889AD88BE88CF88D88CEA143F
:1006D000FB040C051D0540F4EE0CFF1C001F111F50
:1006E000215030403C872B8720E030E040E050E054
:1006F00080E090E0A0E0B0E460E070E0EA14FB0489
:100700000C051D0540F0282B392B4A2B5B2BEA18D2
:10071000FB080C091D09B695A79597958795EE0CD2
:10072000FF1C001F111F6F5F7F4F6F31710531F785
:10073000DA01C9018F779070A070B0708034910594
:10074000A105B10561F427FD0AC0E114F10401051A
:10075000110529F0205C3F4F4F4F5F4F20782D87C8
:100760003E874F87588BBE01675F7F4FCB010E944A
:1007700069056896EAE00C94000FA8E1B0E0E3ECAC
:10078000F3E00C94E80E69837A838B839C832D833A
:100790003E834F83588789E0E82EF12CEC0EFD1E36
:1007A000CE010196B7010E943E068E010F5E1F4FDB
:1007B000CE010596B8010E943E068985823040F040
:1007C0008989823028F0C701B8010E94B60601C0AD
:1007D0008FEF6896E6E00C94040FA8E1B0E0E3EF39
:1007E000F3E00C94E80E69837A838B839C832D83DA
:1007F0003E834F83588789E0E82EF12CEC0EFD1ED6
:10080000CE010196B7010E943E068E010F5E1F4F7A
:10081000CE010596B8010E943E068985823040F0DF
:100820008989823028F0C701B8010E94B60601C04C
:100830008FEF6896E6E00C94040FA8E1B0E0E3E2E5
:10084000F4E00C94E80E69837A838B839C832D8378
:100850003E834F83588789E0E82EF12CEC0EFD1E75
:10086000CE010196B7010E943E068E010F5E1F4F1A
:10087000CE010596B8010E943E068985823040F07F
:100880008989823028F0C701B8010E94B60601C0EC
:1008900081E06896E6E00C94040FACE0B0E0E3E59C
:1008A000F4E00C94EC0E69837A838B839C83CE01F5
:1008B0000196BE016B5F7F4F0E943E068D818230A4
:1008C00061F1823050F1843021F48E81882351F11E
:1008D0002EC02F81388537FD20C06E812F31310524
:1008E0001CF06623F9F023C08EE190E0821B930B8D
:1008F00029853A854B855C8504C056954795379583
:1009000027958A95D2F76623B1F05095409530959A
:1009100021953F4F4F4F5F4F0EC020E030E040E049
:1009200050E009C02FEF3FEF4FEF5FE704C020E03A
:1009300030E040E050E8B901CA012C96E2E00C94A6
:10094000080FA8E0B0E0E7EAF4E00C94E40E7B01C5
:100950008C01611571058105910519F482E0898387
:1009600060C083E089838EE1C82ED12CDC82CB82EB
:10097000ED82FE820F831887C801B7010E941A0515
:10098000FC013197F7FF3BC0222733272E1B3F0B7B
:1009900057016801022E04C0D694C794B794A79457
:1009A0000A94D2F740E050E060E070E081E090E02F
:1009B000A0E0B0E004C0880F991FAA1FBB1F2A95B2
:1009C000D2F70197A109B1098E219F21A023B1235C
:1009D0000097A105B10521F041E050E060E070E032
:1009E0004A295B296C297D294D835E836F83788733
:1009F0008EE190E08E1B9F0B9C838B8312C03097FF
:100A000081F00E2E04C0EE0CFF1C001F111F0A9473
:100A1000D2F7ED82FE820F831887CE1ADF0ADC82BE
:100A2000CB821A82CE0101960E9469052896EAE0DF
:100A30000C94000FEF92FF920F931F937B018C0198
:100A400080E0E81680E0F80681E0080780E01807FB
:100A500088F48FEFE816F1040105110531F028F054
:100A600088E090E0A0E0B0E017C080E090E0A0E077
:100A7000B0E012C080E0E81680E0F80680E00807E9
:100A800081E0180728F088E190E0A0E0B0E004C021
:100A900080E190E0A0E0B0E020E230E040E050E013
:100AA000281B390B4A0B5B0B04C016950795F7946E
:100AB000E7948A95D2F7F701E859FF4F8081281B08
:100AC000310941095109C9011F910F91FF90EF9020
:100AD0000895DF92EF92FF920F931F93FC01E48041
:100AE000F58006811781D1808081823048F480E0D2
:100AF00090E0A0E1B0E0E82AF92A0A2B1B2BA5C060
:100B0000843009F49FC0823021F4EE24FF24870151
:100B100005C0E114F1040105110519F4E0E0F0E06D
:100B200096C0628173819FEF623879070CF05BC0D9
:100B300022E83FEF261B370B2A3131052CF020E04D
:100B400030E040E050E02AC0B801A701022E04C006
:100B500076956795579547950A94D2F781E090E08E
:100B6000A0E0B0E004C0880F991FAA1FBB1F2A9500
:100B7000D2F70197A109B1098E219F21A023B123AA
:100B80000097A105B10521F081E090E0A0E0B0E080
:100B90009A01AB01282B392B4A2B5B2BDA01C901B7
:100BA0008F779070A070B07080349105A105B10569
:100BB00039F427FF09C0205C3F4F4F4F5F4F04C0FF
:100BC000215C3F4F4F4F5F4FE0E0F0E02030A0E06E
:100BD0003A07A0E04A07A0E45A0710F0E1E0F0E08D
:100BE00079018A0127C06038710564F5FB01E1587D
:100BF000FF4FD801C7018F779070A070B07080341C
:100C00009105A105B10539F4E7FE0DC080E490E03F
:100C1000A0E0B0E004C08FE390E0A0E0B0E0E80E18
:100C2000F91E0A1F1B1F17FF05C016950795F7949D
:100C3000E794319687E016950795F794E7948A959F
:100C4000D1F705C0EE24FF248701EFEFF0E06E2F0F
:100C5000679566276795902F9F77D794DD24D79463
:100C60008E2F8695492F462B582F5D29B701CA0133
:100C70001F910F91FF90EF90DF900895FC01DB0131
:100C8000408151812281622F6F7770E0221F2227DD
:100C9000221F9381892F880F822B282F30E0991FE4
:100CA0009927991F11969C93119721153105A9F544
:100CB000411551056105710511F482E037C082E8E4
:100CC0009FEF13969C938E9312979A01AB0167E066
:100CD000220F331F441F551F6A95D1F783E08C9371
:100CE0000DC0220F331F441F551F12968D919C91EA
:100CF0001397019713969C938E931297203080E060
:100D0000380780E0480780E4580758F314962D937D
:100D10003D934D935C93179708952F3F310579F4D8
:100D2000411551056105710519F484E08C9308950E
:100D300064FF03C081E08C9312C01C9210C02F5737
:100D4000304013963C932E93129783E08C9387E068
:100D5000440F551F661F771F8A95D1F7706414964C
:100D60004D935D936D937C93179708951F93DC01CA
:100D7000FB019C91923008F447C08081823008F4D6
:100D800043C0943051F411961C91843099F58181BF
:100D9000682F70E0611B71093FC0843021F09230F0
:100DA00031F48230B9F18181882389F12DC0119607
:100DB0001C9111978230F1F081811817D9F41296A5
:100DC0002D913C911397828193818217930794F020
:100DD00028173907BCF014968D919D910D90BC9108
:100DE000A02D2481358146815781281739074A076C
:100DF0005B0718F4112341F00AC082179307A40778
:100E0000B50740F4112319F061E070E005C06FEF01
:100E10007FEF02C060E070E0CB011F910895DF9387
:100E2000CF93CDB7DEB7EAE3F0E08FE08083E7E36E
:100E3000F0E01082E4E3F0E087E08083E1E3F0E0BB
:100E40008FEF8083EBE3F0E01082E8E3F0E01082C4
:100E5000E5E3F0E01082E2E3F0E01082CF91DF9171
:100E60000895DF93CF93CDB7DEB728970FB6F894E8
:100E7000DEBF0FBECDBF8A836B834C8319828B810B
:100E8000883008F0F6C08C81882309F078C08A8108
:100E9000282F30E038872F838F8198858230910505
:100EA00061F12F8138852330310534F48F819885A5
:100EB0008130910569F060C02F813885233031057C
:100EC00089F18F8198858430910509F440C054C020
:100ED000ABE3B0E0EBE3F0E08081482F8B81282F7B
:100EE00030E081E090E0022E02C0880F991F0A9442
:100EF000E2F7809584238C93BEC0A8E3B0E0E8E3DA
:100F0000F0E08081482F8B81282F30E081E090E055
:100F1000022E02C0880F991F0A94E2F7809584235D
:100F20008C93A9C0A5E3B0E0E5E3F0E08081482F11
:100F30008B81282F30E081E090E0022E02C0880FE4
:100F4000991F0A94E2F7809584238C9394C0A2E3BE
:100F5000B0E0E2E3F0E08081482F8B81282F30E081
:100F600081E090E0022E02C0880F991F0A94E2F7F8
:100F7000809584238C937FC081E089837CC08C81A1
:100F8000813009F073C08A81282F30E03E832D83A1
:100F90008D819E818230910551F12D813E812330DA
:100FA000310534F48D819E818130910561F05BC003
:100FB0002D813E812330310571F18D819E818430F8
:100FC0009105E9F150C0ABE3B0E0EBE3F0E08081E4
:100FD000482F8B81282F30E081E090E0022E02C064
:100FE000880F991F0A94E2F7842B8C9344C0A8E3DE
:100FF000B0E0E8E3F0E08081482F8B81282F30E0DB
:1010000081E090E0022E02C0880F991F0A94E2F757
:10101000842B8C9330C0A5E3B0E0E5E3F0E0808161
:10102000482F8B81282F30E081E090E0022E02C013
:10103000880F991F0A94E2F7842B8C931CC0A2E3BB
:10104000B0E0E2E3F0E08081482F8B81282F30E090
:1010500081E090E0022E02C0880F991F0A94E2F707
:10106000842B8C9308C081E0898305C081E089834B
:1010700002C081E08983898128960FB6F894DEBF8B
:101080000FBECDBFCF91DF910895DF93CF9300D0F6
:1010900000D00F92CDB7DEB78A836B8319828A8125
:1010A000282F30E03D832C838C819D8182309105F7
:1010B000D9F02C813D812330310534F48C819D8120
:1010C0008130910561F01FC02C813D8123303105B5
:1010D00081F08C819D818430910581F014C0EBE317
:1010E000F0E08B81808311C0E8E3F0E08B818083A6
:1010F0000CC0E5E3F0E08B81808307C0E2E3F0E021
:101100008B81808302C081E0898389810F900F9059
:101110000F900F900F90CF91DF910895DF93CF93B1
:10112000CDB7DEB727970FB6F894DEBF0FBECDBFA1
:101130008A836B835D834C8319828B81883008F0AE
:101140007CC08C819D81009709F474C08A81282F0E
:1011500030E03F832E834E815F814230510559F14B
:101160008E819F818330910534F42E813F8121301F
:10117000310569F05CC04E815F814330510579F1E2
:101180008E819F818430910509F43DC050C0E9E310
:10119000F0E08081282F30E08B81882F90E0A9013A
:1011A00002C0559547958A95E2F7CA018170EC8196
:1011B000FD81808344C0E6E3F0E08081282F30E0A9
:1011C0008B81882F90E0A90102C0559547958A959B
:1011D000E2F7CA018170EC81FD81808330C0E3E3D6
:1011E000F0E08081282F30E08B81882F90E0A901EA
:1011F00002C0559547958A95E2F7CA018170EC8146
:10120000FD8180831CC0E0E3F0E08081282F30E086
:101210008B81882F90E0A90102C0559547958A954A
:10122000E2F7CA018170EC81FD81808308C081E012
:10123000898305C081E0898302C081E08983898137
:1012400027960FB6F894DEBF0FBECDBFCF91DF91CA
:101250000895DF93CF9300D000D000D0CDB7DEB794
:101260008A837C836B8319828B819C81009709F42C
:101270003FC08A81282F30E03E832D838D819E815F
:1012800082309105E9F02D813E812330310534F41F
:101290008D819E818130910561F027C02D813E8135
:1012A00023303105A1F08D819E8184309105B1F00C
:1012B0001CC0E9E3F0E08081EB81FC8180831AC0EF
:1012C000E6E3F0E08081EB81FC81808313C0E3E3FF
:1012D000F0E08081EB81FC8180830CC0E0E3F0E0F2
:1012E0008081EB81FC81808305C081E0898302C01D
:1012F00081E08983898126960FB6F894DEBF0FBE00
:10130000CDBFCF91DF910895DF93CF93CDB7DEB7F7
:10131000EE970FB6F894DEBF0FBECDBF9EAF8DAF78
:101320008DAD9EADCC01A0E0B0E0BC01CD010E942E
:10133000A104DC01CB01BC01CD012DE53EEF43E36F
:101340005FE30E941103DC01CB01BC01CD010E94CF
:101350004100DC01CB019CAF8BAF1AAE19AE1DC2B0
:1013600081E060E041E00E94310781E061E040E01F
:101370000E94310781E062E040E00E94310781E095
:1013800063E040E00E94310780E090E0A0E0B0E43C
:101390008DAB9EABAFABB8AF6DA97EA98FA998AD51
:1013A00020E030E04AEF54E40E941702DC01CB0158
:1013B00089AB9AABABABBCAB69A97AA98BA99CA949
:1013C00020E030E040E85FE30E941D0488232CF415
:1013D00081E090E098AB8FA73FC069A97AA98BA95B
:1013E0009CA920E03FEF4FE757E40E94BD03181689
:1013F0004CF56DA97EA98FA998AD20E030E040E2C0
:1014000051E40E941702DC01CB01BC01CD010E9416
:101410004100DC01CB0198AB8FA70FC088EC90E0B6
:101420009EA78DA78DA59EA50197F1F79EA78DA7D5
:101430008FA598A9019798AB8FA78FA598A900971A
:1014400069F714C069A97AA98BA99CA90E944100D7
:10145000DC01CB0198AB8FA78FA598A99CA78BA780
:101460008BA59CA50197F1F79CA78BA781E060E075
:1014700040E00E94310781E061E041E00E943107D5
:1014800081E062E040E00E94310781E063E040E0FB
:101490000E94310780E090E0A0E0B0E48FA398A71D
:1014A000A9A7BAA76FA178A589A59AA520E030E0E1
:1014B0004AEF54E40E941702DC01CB018BA39CA3EA
:1014C000ADA3BEA36BA17CA18DA19EA120E030E0C5
:1014D00040E85FE30E941D0488232CF481E090E043
:1014E0009AA389A33FC06BA17CA18DA19EA120E0FE
:1014F0003FEF4FE757E40E94BD0318164CF56FA16C
:1015000078A589A59AA520E030E040E251E40E9448
:101510001702DC01CB01BC01CD010E944100DC01BE
:10152000CB019AA389A30FC088EC90E098A38F8F7A
:101530008F8D98A10197F1F798A38F8F89A19AA118
:1015400001979AA389A389A19AA1009769F714C06A
:101550006BA17CA18DA19EA10E944100DC01CB0169
:101560009AA389A389A19AA19E8F8D8F8D8D9E8D1F
:101570000197F1F79E8F8D8F81E060E040E00E943F
:10158000310781E061E040E00E94310781E062E0E4
:1015900041E00E94310781E063E040E00E943107B2
:1015A00080E090E0A0E0B0E4898F9A8FAB8FBC8F91
:1015B000698D7A8D8B8D9C8D20E030E04AEF54E46C
:1015C0000E941702DC01CB018D8B9E8BAF8BB88FF5
:1015D0006D897E898F89988D20E030E040E85FE357
:1015E0000E941D0488232CF481E090E09C8B8B8B5F
:1015F0003FC06D897E898F89988D20E03FEF4FE74E
:1016000057E40E94BD0318164CF5698D7A8D8B8DB9
:101610009C8D20E030E040E251E40E941702DC01A2
:10162000CB01BC01CD010E944100DC01CB019C8BB0
:101630008B8B0FC088EC90E09A8B898B89899A8973
:101640000197F1F79A8B898B8B899C8901979C8BE9
:101650008B8B8B899C89009769F714C06D897E8973
:101660008F89988D0E944100DC01CB019C8B8B8B74
:101670008B899C89988B8F878F8598890197F1F743
:10168000988B8F8781E060E040E00E94310781E025
:1016900061E040E00E94310781E062E040E00E94AA
:1016A000310781E063E041E00E94310780E090E093
:1016B000A0E0B0E48B879C87AD87BE876B857C8577
:1016C0008D859E8520E030E04AEF54E40E941702A9
:1016D000DC01CB018F839887A987BA876F817885D2
:1016E00089859A8520E030E040E85FE30E941D0490
:1016F00088232CF481E090E09E838D833FC06F812E
:10170000788589859A8520E03FEF4FE757E40E946E
:10171000BD0318164CF56B857C858D859E8520E074
:1017200030E040E251E40E941702DC01CB01BC0131
:10173000CD010E944100DC01CB019E838D830FC04F
:1017400088EC90E09C838B838B819C810197F1F7DF
:101750009C838B838D819E8101979E838D838D8158
:101760009E81009769F714C06F81788589859A8575
:101770000E944100DC01CB019E838D838D819E817F
:101780009A83898389819A810197F1F79A83898362
:1017900089AD9AAD01969AAF89AF29AD3AAD8BADBF
:1017A0009CAD2817390708F4DBCDEE960FB6F894F8
:1017B000DEBF0FBECDBFCF91DF9108950F931F9372
:1017C000DF93CF93CDB7DEB7C854D0400FB6F894AF
:1017D000DEBF0FBECDBFFE01E95BFF4F918380836B
:1017E000FE01E95BFF4F80819181CC01A0E0B0E078
:1017F000BC01CD010E94A104DC01CB01BC01CD01E3
:101800002DE53EEF43E35FE30E941103DC01CB01D2
:101810008E010B5B1F4FBC01CD010E944100DC011A
:10182000CB01F80191838083FE01ED5BFF4F1182B4
:10183000108275C281E060E040E00E94310781E0E3
:1018400061E040E00E94310781E062E040E00E94F8
:10185000310781E063E041E00E943107FE01FF961D
:1018600080E090E0A0E0B0E480839183A283B38322
:10187000FE01FF96608171818281938120E030E0DA
:101880004AEF54E40E941702DC01CB018BAF9CAFFE
:10189000ADAFBEAF6BAD7CAD8DAD9EAD20E030E0A9
:1018A00040E85FE30E941D0488232CF481E090E06F
:1018B0009AAF89AF41C06BAD7CAD8DAD9EAD20E0E0
:1018C0003FEF4FE757E40E94BD0318165CF5FE0199
:1018D000FF96608171818281938120E030E040E257
:1018E00051E40E941702DC01CB01BC01CD010E9432
:1018F0004100DC01CB019AAF89AF0FC088EC90E0CA
:1019000098AF8FAB8FA998AD0197F1F798AF8FABD8
:1019100089AD9AAD01979AAF89AF89AD9AAD00971D
:1019200069F714C06BAD7CAD8DAD9EAD0E944100DA
:10193000DC01CB019AAF89AF89AD9AAD9EAB8DAB7F
:101940008DA99EA90197F1F79EAB8DAB81E060E078
:1019500040E00E94310781E061E040E00E943107F1
:1019600081E062E041E00E94310781E063E040E015
:101970000E94310780E090E0A0E0B0E489AB9AAB30
:10198000ABABBCAB69A97AA98BA99CA920E030E0DC
:101990004AEF54E40E941702DC01CB018DA79EA7F9
:1019A000AFA7B8AB6DA57EA58FA598A920E030E0C4
:1019B00040E85FE30E941D0488232CF481E090E05E
:1019C0009CA78BA73FC06DA57EA58FA598A920E0F9
:1019D0003FEF4FE757E40E94BD0318164CF569A985
:1019E0007AA98BA99CA920E030E040E251E40E9452
:1019F0001702DC01CB01BC01CD010E944100DC01DA
:101A0000CB019CA78BA70FC088EC90E09AA789A771
:101A100089A59AA50197F1F79AA789A78BA59CA5F7
:101A200001979CA78BA78BA59CA5009769F714C06D
:101A30006DA57EA58FA598A90E944100DC01CB0170
:101A40009CA78BA78BA59CA598A78FA38FA198A5D2
:101A50000197F1F798A78FA381E060E040E00E9432
:101A6000310781E061E041E00E94310781E062E0FE
:101A700040E00E94310781E063E040E00E943107CE
:101A800080E090E0A0E0B0E48BA39CA3ADA3BEA354
:101A90006BA17CA18DA19EA120E030E04AEF54E42F
:101AA0000E941702DC01CB018F8F98A3A9A3BAA3D0
:101AB0006F8D78A189A19AA120E030E040E85FE332
:101AC0000E941D0488232CF481E090E09E8F8D8F6E
:101AD0003FC06F8D78A189A19AA120E03FEF4FE729
:101AE00057E40E94BD0318164CF56BA17CA18DA193
:101AF0009EA120E030E040E251E40E941702DC01A8
:101B0000CB01BC01CD010E944100DC01CB019E8FC5
:101B10008D8F0FC088EC90E09C8F8B8F8B8D9C8D70
:101B20000197F1F79C8F8B8F8D8D9E8D01979E8FE6
:101B30008D8F8D8D9E8D009769F714C06F8D78A164
:101B400089A19AA10E944100DC01CB019E8F8D8F5B
:101B50008D8D9E8D9A8F898F898D9A8D0197F1F742
:101B60009A8F898F81E060E041E00E94310781E037
:101B700061E040E00E94310781E062E040E00E94C5
:101B8000310781E063E040E00E94310780E090E0AF
:101B9000A0E0B0E48D8B9E8BAF8BB88F6D897E8972
:101BA0008F89988D2BEA3AEA4AE250E40E941702A4
:101BB000DC01CB01898B9A8BAB8BBC8B69897A89D1
:101BC0008B899C8920E030E040E85FE30E941D049F
:101BD00088231CF481E0888B91C069897A898B897C
:101BE0009C8920E030E04FE753E40E94BD031816C3
:101BF0000CF07BC06D897E898F89988D20E030E064
:101C00004AE754E40E941103DC01CB018C879D87D5
:101C1000AE87BF876C857D858E859F8520E030E00F
:101C20004AEF54E40E941702DC01CB0188879987B0
:101C3000AA87BB87688579858A859B8520E030E007
:101C400040E85FE30E941D0488232CF481E090E0CB
:101C50009F838E833FC0688579858A859B8520E038
:101C60003FEF4FE757E40E94BD0318164CF56C8513
:101C70007D858E859F8520E030E040E251E40E9422
:101C80001702DC01CB01BC01CD010E944100DC0147
:101C9000CB019F838E830FC088EC90E09D838C8363
:101CA0008C819D810197F1F79D838C838E819F812B
:101CB00001979F838E838E819F81009769F724C04F
:101CC000688579858A859B850E944100DC01CB016E
:101CD0009F838E838E819F819B838A838A819B8150
:101CE0000197F1F79B838A830FC069897A898B8971
:101CF0009C890E944100DC01CB01888B8889898303
:101D000089818A95F1F78983DE01AD5BBF4FFE01C2
:101D1000ED5BFF4F8081918101968D939C93FE0135
:101D2000ED5BFF4FDE01AB5BBF4F208131818D91B9
:101D30009C9111972817390708F47CCDC85BDF4FB9
:101D40000FB6F894DEBF0FBECDBFCF91DF911F91CC
:101D50000F910895DF93CF93CDB7DEB781E060E0B8
:101D600040E00E94310781E061E040E00E943107DD
:101D700081E062E040E00E94310781E063E040E002
:101D80000E943107CF91DF910895DF93CF93CDB7B4
:101D9000DEB70E940F0788E691E00E94840988E67A
:101DA00091E00E94DE0B8AE590E00E9484098AE5BA
:101DB00090E00E94DE0BEFCF2F923F924F925F9206
:101DC0006F927F928F929F92AF92BF92CF92DF924B
:101DD000EF92FF920F931F93CF93DF93CDB7DEB7B0
:101DE000CA1BDB0B0FB6F894DEBF0FBECDBF099444
:101DF0002A88398848885F846E847D848C849B849B
:101E0000AA84B984C884DF80EE80FD800C811B81A8
:101E1000AA81B981CE0FD11D0FB6F894DEBF0FBED7
:0A1E2000CDBFED010895F894FFCF47
:101E2A000000000000000000000102020303030397
:101E3A000404040404040404050505050505050550
:101E4A000505050505050505060606060606060630
:101E5A000606060606060606060606060606060618
:101E6A000606060606060606070707070707070700
:101E7A0007070707070707070707070707070707E8
:101E8A0007070707070707070707070707070707D8
:101E9A0007070707070707070707070707070707C8
:101EAA0007070707070707070808080808080808B0
:101EBA000808080808080808080808080808080898
:101ECA000808080808080808080808080808080888
:101EDA000808080808080808080808080808080878
:101EEA000808080808080808080808080808080868
:101EFA000808080808080808080808080808080858
:101F0A000808080808080808080808080808080847
:101F1A000808080808080808080808080808080837
:081F2A0008080808080808086F
:00000001FF
