:100000000C942A000C943F000C943F000C943F0089
:100010000C943F000C943F000C943F000C943F0064
:100020000C943F000C943F000C943F000C943F0054
:100030000C943F000C943F000C943F000C943F0044
:100040000C943F000C943F000C943F000C943F0034
:100050000C943F0011241FBECFE5D8E0DEBFCDBF1A
:1000600010E0A0E6B0E0ECEDFCE302C005900D92DC
:10007000A836B107D9F70E949B050C946C1E0C940E
:100080000000EF92FF920F931F937B018C0120E001
:1000900030E040E05FE40E94410388238CF0C80117
:1000A000B70120E030E040E05FE40E94B9010E9427
:1000B000A1039B01AC01205030404040504806C095
:1000C000C801B7010E94A1039B01AC01B901CA019B
:1000D0001F910F91FF90EF900895A0E0B0E0E3E74B
:1000E000F0E00C94351EDC012B01FA019C9192305A
:1000F00008F439C1EB018881823008F433C19430AF
:1001000069F4843009F02FC111969C91119789816F
:10011000981709F428C1A0E6B0E025C1843009F49D
:1001200021C18230A9F4923009F01DC19A01AD01BC
:1001300088E0EA010990AE01E90109929E0181502F
:10014000C1F7E201898111969C918923818308C1BD
:10015000923009F407C112962D903C901397EB0151
:100160008A819B811496AD90BD90CD90DC901797BD
:10017000EC80FD800E811F819101281B390BB90194
:1001800037FF04C066277727621B730B6032710547
:100190000CF061C0121613066CF537014801062EEB
:1001A00004C096948794779467940A94D2F721E0D8
:1001B00030E040E050E004C0220F331F441F551FC1
:1001C0006A95D2F721503040404050402E213F21C7
:1001D00040235123211531054105510521F021E02E
:1001E00030E040E050E079018A01E628F72808294C
:1001F00019293CC0232BD1F1260E371E35014601AB
:10020000062E04C096948794779467940A94D2F744
:1002100021E030E040E050E004C0220F331F441FD3
:10022000551F6A95D2F721503040404050402A2156
:100230003B214C215D21211531054105510521F05E
:1002400021E030E040E050E059016A01A628B728DB
:10025000C828D9280BC0821593052CF01C01AA24AC
:10026000BB24650103C0EE24FF24870111969C91F5
:10027000D20111968C91981709F445C0992339F051
:10028000A80197012A193B094C095D0906C0A6017E
:1002900095012E193F09400B510B57FD08C01182E3
:1002A0003382228224833583468357831DC081E0B5
:1002B00081833382228288279927DC01821B930B5A
:1002C000A40BB50B84839583A683B7830DC0220F3F
:1002D000331F441F551F24833583468357838281F0
:1002E000938101979383828324813581468157814D
:1002F000DA01C9010197A109B1098F5F9F4FAF4F83
:10030000BF4328F30BC0918333822282EA0CFB1C8B
:100310000C1D1D1DE482F5820683178383E0808314
:10032000248135814681578157FF1AC0C901AA2708
:1003300097FDA095BA2F81709070A070B0705695FF
:10034000479537952795822B932BA42BB52B848328
:100350009583A683B7838281938101969383828359
:10036000DF0101C0D201CD01CDB7DEB7E2E10C94CF
:10037000511EA0E2B0E0EFEBF1E00C94411E698366
:100380007A838B839C832D833E834F835887E9E058
:10039000EE2EF12CEC0EFD1ECE010196B7010E944F
:1003A000CA048E010F5E1F4FCE010596B8010E9450
:1003B000CA048A8991E089278A8BC701B801AE01F6
:1003C000475E5F4F0E946D000E94F503A096E6E035
:1003D0000C945D1EA0E2B0E0E0EFF1E00C94411E51
:1003E00069837A838B839C832D833E834F835887D5
:1003F000F9E0EF2EF12CEC0EFD1ECE010196B701B7
:100400000E94CA048E010F5E1F4FCE010596B801EF
:100410000E94CA04C701B801AE01475E5F4F0E9447
:100420006D000E94F503A096E6E00C945D1EA0E22C
:10043000B0E0EDE1F2E00C94351E69837A838B83A2
:100440009C832D833E834F835887CE010196BE0146
:10045000675F7F4F0E94CA04CE010596BE016F5EA2
:100460007F4F0E94CA049985923088F08989823032
:10047000C8F0943019F4823051F404C0843029F467
:10048000923081F480E690E0C6C0923049F420E0DA
:100490009A858A89981321E02A87CE010996BBC0E4
:1004A000823049F420E09A858A89981321E02A8BCA
:1004B000CE014196B0C02D843E844F8458886D880B
:1004C0007E888F88988CEE24FF248701AA24BB2481
:1004D000650140E050E060E070E0E0E0F0E0C10184
:1004E00081709070892BE9F0E60CF71C081D191D2E
:1004F0009A01AB012A0D3B1D4C1D5D1D80E090E073
:10050000A0E0B0E0E614F7040805190520F481E046
:1005100090E0A0E0B0E0BA01A901480F591F6A1F9E
:100520007B1FAA0CBB1CCC1CDD1C97FE08C081E005
:1005300090E0A0E0B0E0A82AB92ACA2ADB2A3196C6
:10054000E032F10549F0660C771C881C991C569422
:10055000479437942794C3CFFA85EA892B893C893D
:100560008B859C85280F391F2E5F3F4F17C0CA010E
:1005700081709070892B61F016950795F794E79438
:1005800080E090E0A0E0B0E8E82AF92A0A2B1B2BD3
:1005900076956795579547952F5F3F4F77FDE7CF46
:1005A0000CC0440F551F661F771F17FD4160EE0CEE
:1005B000FF1C001F111F21503040403090E05907B0
:1005C00090E0690790E4790760F32B8F3C8FDB01A3
:1005D000CA018F779070A070B07080349105A1052A
:1005E000B10561F447FD0AC0E114F10401051105EC
:1005F00029F0405C5F4F6F4F7F4F40781A8EFE1797
:1006000011F081E08A8F4D8F5E8F6F8F78A383E02A
:10061000898FCE0149960E94F503A096E2E10C94E1
:10062000511EA8E1B0E0E7E1F3E00C94411E6983BC
:100630007A838B839C832D833E834F83588789E005
:10064000E82EF12CEC0EFD1ECE010196B7010E94A2
:10065000CA048E010F5E1F4FCE010596B8010E949D
:10066000CA048985823040F08989823028F0C70128
:10067000B8010E94420501C08FEF6896E6E00C9435
:100680005D1EA8E1B0E0E7E4F3E00C94411E69834D
:100690007A838B839C832D833E834F83588789E0A5
:1006A000E82EF12CEC0EFD1ECE010196B7010E9442
:1006B000CA048E010F5E1F4FCE010596B8010E943D
:1006C000CA048985823040F08989823028F0C701C8
:1006D000B8010E94420501C08FEF6896E6E00C94D5
:1006E0005D1EA8E1B0E0E7E7F3E00C94411E6983EA
:1006F0007A838B839C832D833E834F83588789E045
:10070000E82EF12CEC0EFD1ECE010196B7010E94E1
:10071000CA048E010F5E1F4FCE010596B8010E94DC
:10072000CA048985823040F08989823028F0C70167
:10073000B8010E94420501C081E06896E6E00C9491
:100740005D1EACE0B0E0E7EAF3E00C94451E69837F
:100750007A838B839C83CE010196BE016B5F7F4FB2
:100760000E94CA048D81823061F1823050F1843060
:1007700021F48E81882351F12EC02F81388537FDD9
:1007800020C06E812F3131051CF06623F9F023C0A3
:100790008EE190E0821B930B29853A854B855C8521
:1007A00004C056954795379527958A95D2F76623C5
:1007B000B1F050954095309521953F4F4F4F5F4F89
:1007C0000EC020E030E040E050E009C02FEF3FEFE6
:1007D0004FEF5FE704C020E030E040E050E8B901AF
:1007E000CA012C96E2E00C94611EDF92EF92FF9218
:1007F0000F931F93FC01E480F58006811781D1805F
:100800008081823048F480E090E0A0E1B0E0E82A06
:10081000F92A0A2B1B2BA5C0843009F49FC0823013
:1008200021F4EE24FF24870105C0E114F104010541
:10083000110519F4E0E0F0E096C0628173819FEF4A
:10084000623879070CF05BC022E83FEF261B370BBC
:100850002A3131052CF020E030E040E050E02AC0A1
:10086000B801A701022E04C0769567955795479564
:100870000A94D2F781E090E0A0E0B0E004C0880FD5
:10088000991FAA1FBB1F2A95D2F70197A109B10989
:100890008E219F21A023B1230097A105B10521F04E
:1008A00081E090E0A0E0B0E09A01AB01282B392B69
:1008B0004A2B5B2BDA01C9018F779070A070B07062
:1008C00080349105A105B10539F427FF09C0205CEA
:1008D0003F4F4F4F5F4F04C0215C3F4F4F4F5F4F23
:1008E000E0E0F0E02030A0E03A07A0E04A07A0E412
:1008F0005A0710F0E1E0F0E079018A0127C0603882
:10090000710564F5FB01E158FF4FD801C7018F77EE
:100910009070A070B07080349105A105B10539F4D4
:10092000E7FE0DC080E490E0A0E0B0E004C08FE3FB
:1009300090E0A0E0B0E0E80EF91E0A1F1B1F17FFB1
:1009400005C016950795F794E794319687E01695BC
:100950000795F794E7948A95D1F705C0EE24FF2414
:100960008701EFEFF0E06E2F679566276795902F70
:100970009F77D794DD24D7948E2F8695492F462BC9
:10098000582F5D29B701CA011F910F91FF90EF9079
:10099000DF900895FC01DB01408151812281622FAB
:1009A0006F7770E0221F2227221F9381892F880FE3
:1009B000822B282F30E0991F9927991F11969C931D
:1009C000119721153105A9F54115510561057105ED
:1009D00011F482E037C082E89FEF13969C938E93C8
:1009E00012979A01AB0167E0220F331F441F551F76
:1009F0006A95D1F783E08C930DC0220F331F441FFB
:100A0000551F12968D919C911397019713969C9365
:100A10008E931297203080E0380780E0480780E40A
:100A2000580758F314962D933D934D935C93179765
:100A300008952F3F310579F4411551056105710580
:100A400019F484E08C93089564FF03C081E08C93D3
:100A500012C01C9210C02F57304013963C932E9317
:100A6000129783E08C9387E0440F551F661F771F12
:100A70008A95D1F7706414964D935D936D937C9332
:100A8000179708951F93DC01FB019C91923008F4A5
:100A900047C08081823008F443C0943051F41196ED
:100AA0001C91843099F58181682F70E0611B710978
:100AB0003FC0843021F0923031F48230B9F181812D
:100AC000882389F12DC011961C9111978230F1F085
:100AD00081811817D9F412962D913C911397828138
:100AE00093818217930794F028173907BCF0149666
:100AF0008D919D910D90BC91A02D248135814681D1
:100B00005781281739074A075B0718F4112341F06A
:100B10000AC082179307A407B50740F4112319F000
:100B200061E070E005C06FEF7FEF02C060E070E051
:100B3000CB011F9108950F931F93DF93CF93CDB7F0
:100B4000DEB7C85FD1400FB6F894DEBF0FBECDBF91
:100B5000EAE3F0E08FEF8083E1E3F0E08FEF808362
:100B6000E7E3F0E08FEF8083E4E3F0E08FEF808352
:100B7000EBE3F0E081E08083FE01EB50FE4F80E08C
:100B800090E0A8ECB2E480839183A283B3838E01CA
:100B90000F501E4FFE01EB50FE4F6081718182812C
:100BA000938120E030E04AEF54E40E941702DC0118
:100BB000CB01F80180839183A283B383FE01EF50C0
:100BC000FE4F608171818281938120E030E040E8B6
:100BD0005FE30E947103882344F4FE01E151FE4F5C
:100BE00081E090E09183808364C0FE01EF50FE4F6E
:100BF000608171818281938120E03FEF4FE757E46C
:100C00000E94110318160CF043C0FE01EB50FE4F7A
:100C1000608171818281938120E030E040E251E483
:100C20000E941702DC01CB018E0101511E4FBC0155
:100C3000CD010E944100DC01CB01F801918380834A
:100C40001FC0FE01E351FE4F88EC90E0918380834A
:100C5000FE01E351FE4F808191810197F1F7FE0182
:100C6000E351FE4F91838083DE01A151BE4FFE010F
:100C7000E151FE4F80819181019711969C938E9353
:100C8000FE01E151FE4F808191810097D1F627C08E
:100C90008E0101511E4FFE01EF50FE4F60817181A8
:100CA000828193810E944100DC01CB01F801918394
:100CB0008083DE01A551BE4FFE01E151FE4F8081D0
:100CC00091818D939C93FE01E551FE4F808191812E
:100CD0000197F1F7FE01E551FE4F91838083EBE32D
:100CE000F0E082E08083FE01E951FE4F80E090E079
:100CF000A8ECB2E480839183A283B3838E010D516B
:100D00001E4FFE01E951FE4F608171818281938106
:100D100020E030E04AEF54E40E941702DC01CB01EE
:100D2000F80180839183A283B383FE01ED51FE4FCE
:100D3000608171818281938120E030E040E85FE34F
:100D40000E947103882344F4FE01EF51FE4F81E0BD
:100D500090E09183808364C0FE01ED51FE4F60817D
:100D600071818281938120E03FEF4FE757E40E9439
:100D7000110318160CF043C0FE01E951FE4F6081CB
:100D800071818281938120E030E040E251E40E9451
:100D90001702DC01CB018E010F511E4FBC01CD01AA
:100DA0000E944100DC01CB01F801918380831FC0C8
:100DB000FE01E152FE4F88EC90E091838083FE01BA
:100DC000E152FE4F808191810197F1F7FE01E152DE
:100DD000FE4F91838083DE01AF51BE4FFE01EF5184
:100DE000FE4F80819181019711969C938E93FE0115
:100DF000EF51FE4F808191810097D1F627C08E017F
:100E00000F511E4FFE01ED51FE4F608171818281B5
:100E100093810E944100DC01CB01F8019183808322
:100E2000DE01A352BE4FFE01EF51FE4F8081918142
:100E30008D939C93FE01E352FE4F80819181019737
:100E4000F1F7FE01E352FE4F91838083EBE3F0E084
:100E500084E08083FE01E752FE4F80E090E0A8EC42
:100E6000B2E480839183A283B3838E010B521E4F21
:100E7000FE01E752FE4F608171818281938120E003
:100E800030E04AEF54E40E941702DC01CB01F80184
:100E900080839183A283B383FE01EB52FE4F608176
:100EA00071818281938120E030E040E85FE30E941D
:100EB0007103882344F4FE01ED52FE4F81E090E07F
:100EC0009183808364C0FE01EB52FE4F608171818B
:100ED0008281938120E03FEF4FE757E40E941103A6
:100EE00018160CF043C0FE01E752FE4F608171817D
:100EF0008281938120E030E040E251E40E941702B9
:100F0000DC01CB018E010D521E4FBC01CD010E94B0
:100F10004100DC01CB01F801918380831FC0FE01F9
:100F2000EF52FE4F88EC90E091838083FE01EF52F8
:100F3000FE4F808191810197F1F7FE01EF52FE4F44
:100F400091838083DE01AD52BE4FFE01ED52FE4F14
:100F500080819181019711969C938E93FE01ED52B1
:100F6000FE4F808191810097D1F627C08E010D52EE
:100F70001E4FFE01EB52FE4F608171818281938191
:100F80000E944100DC01CB01F80191838083DE01E6
:100F9000A153BE4FFE01ED52FE4F808191818D9392
:100FA0009C93FE01E153FE4F808191810197F1F7FF
:100FB000FE01E153FE4F91838083EBE3F0E088E094
:100FC0008083FE01E553FE4F80E090E0A8ECB2E4A0
:100FD00080839183A283B3838E0109531E4FFE0148
:100FE000E553FE4F608171818281938120E030E082
:100FF0004AEF54E40E941702DC01CB01F801808320
:101000009183A283B383FE01E953FE4F6081718116
:101010008281938120E030E040E85FE30E94710329
:10102000882344F4FE01EB53FE4F81E090E091836E
:10103000808364C0FE01E953FE4F6081718182812B
:10104000938120E03FEF4FE757E40E941103181609
:101050000CF043C0FE01E553FE4F60817181828137
:10106000938120E030E040E251E40E941702DC016D
:10107000CB018E010B531E4FBC01CD010E944100DC
:10108000DC01CB01F801918380831FC0FE01ED5389
:10109000FE4F88EC90E091838083FE01ED53FE4F7C
:1010A000808191810197F1F7FE01ED53FE4F91830D
:1010B0008083DE01AB53BE4FFE01EB53FE4F8081B8
:1010C0009181019711969C938E93FE01EB53FE4FF5
:1010D000808191810097D1F627C08E010B531E4F5E
:1010E000FE01E953FE4F60817181828193810E94EC
:1010F0004100DC01CB01F80191838083DE01AF5315
:10110000BE4FFE01EB53FE4F808191818D939C93E6
:10111000FE01EF53FE4F808191810197F1F7FE01AF
:10112000EF53FE4F91838083EBE3F0E080E1808317
:10113000FE01E354FE4F80E090E0A8ECB2E480832F
:101140009183A283B3838E0107541E4FFE01E354A3
:10115000FE4F608171818281938120E030E04AEF0F
:1011600054E40E941702DC01CB01F80180839183D3
:10117000A283B383FE01E754FE4F608171818281B7
:10118000938120E030E040E85FE30E947103882310
:1011900044F4FE01E954FE4F81E090E091838083A6
:1011A00064C0FE01E754FE4F6081718182819381AA
:1011B00020E03FEF4FE757E40E94110318160CF0B0
:1011C00043C0FE01E354FE4F6081718182819381AF
:1011D00020E030E040E251E40E941702DC01CB0144
:1011E0008E0109541E4FBC01CD010E944100DC015B
:1011F000CB01F801918380831FC0FE01EB54FE4FA9
:1012000088EC90E091838083FE01EB54FE4F808157
:1012100091810197F1F7FE01EB54FE4F918380839A
:10122000DE01A954BE4FFE01E954FE4F8081918139
:10123000019711969C938E93FE01E954FE4F808195
:1012400091810097D1F627C08E0109541E4FFE01EF
:10125000E754FE4F60817181828193810E94410039
:10126000DC01CB01F80191838083DE01AD54BE4FD8
:10127000FE01E954FE4F808191818D939C93FE0184
:10128000ED54FE4F808191810197F1F7FE01ED54FD
:10129000FE4F91838083EBE3F0E080E28083FE01E8
:1012A000E155FE4F80E090E0A8ECB2E480839183AA
:1012B000A283B3838E0105551E4FFE01E155FE4FFB
:1012C000608171818281938120E030E04AEF54E4B3
:1012D0000E941702DC01CB01F80180839183A28375
:1012E000B383FE01E555FE4F608171818281938158
:1012F00020E030E040E85FE30E947103882344F47B
:10130000FE01E755FE4F81E090E09183808364C049
:10131000FE01E555FE4F608171818281938120E05D
:101320003FEF4FE757E40E94110318160CF043C03B
:10133000FE01E155FE4F608171818281938120E041
:1013400030E040E251E40E941702DC01CB018E0143
:1013500007551E4FBC01CD010E944100DC01CB01AD
:10136000F801918380831FC0FE01E955FE4F88EC90
:1013700090E091838083FE01E955FE4F8081918149
:101380000197F1F7FE01E955FE4F91838083DE015D
:10139000A755BE4FFE01E755FE4F80819181019711
:1013A00011969C938E93FE01E755FE4F80819181AB
:1013B0000097D1F627C08E0107551E4FFE01E55557
:1013C000FE4F60817181828193810E944100DC0126
:1013D000CB01F80191838083DE01AB55BE4FFE0146
:1013E000E755FE4F808191818D939C93FE01EB55D3
:1013F000FE4F808191810197F1F7FE01EB55FE4F81
:1014000091838083EBE3F0E080E48083FE01EF557D
:10141000FE4F80E090E0A8ECB2E480839183A28349
:10142000B3838E0103561E4FFE01EF55FE4F6081C0
:1014300071818281938120E030E04AEF54E40E9480
:101440001702DC01CB01F80180839183A283B3836F
:10145000FE01E356FE4F608171818281938120E01D
:1014600030E040E85FE30E947103882344F4FE010A
:10147000E556FE4F81E090E09183808364C0FE01D9
:10148000E356FE4F608171818281938120E03FEFBE
:101490004FE757E40E94110318160CF043C0FE01F9
:1014A000EF55FE4F608171818281938120E030E0B1
:1014B00040E251E40E941702DC01CB018E01055687
:1014C0001E4FBC01CD010E944100DC01CB01F8019F
:1014D000918380831FC0FE01E756FE4F88EC90E0A9
:1014E00091838083FE01E756FE4F808191810197B1
:1014F000F1F7FE01E756FE4F91838083DE01A5568A
:10150000BE4FFE01E556FE4F8081918101971196F5
:101510009C938E93FE01E556FE4F8081918100974A
:10152000D1F627C08E0105561E4FFE01E356FE4F31
:1015300060817181828193810E944100DC01CB0135
:10154000F80191838083DE01A956BE4FFE01E55666
:10155000FE4F808191818D939C93FE01E956FE4F51
:10156000808191810197F1F7FE01E956FE4F918349
:101570008083EBE3F0E080E88083FE01ED56FE4FD0
:1015800080E090E0A8ECB2E480839183A283B383EF
:101590008E0101571E4FFE01ED56FE4F6081718195
:1015A0008281938120E030E04AEF54E40E941702E8
:1015B000DC01CB01F80180839183A283B383FE0118
:1015C000E157FE4F608171818281938120E030E09C
:1015D00040E85FE30E947103882344F4FE01E3576F
:1015E000FE4F81E090E09183808364C0FE01E1576B
:1015F000FE4F608171818281938120E03FEF4FE750
:1016000057E40E94110318160CF043C0FE01ED567A
:10161000FE4F608171818281938120E030E040E261
:1016200051E40E941702DC01CB018E0103571E4FCB
:10163000BC01CD010E944100DC01CB01F801918386
:1016400080831FC0FE01E557FE4F88EC90E0918338
:101650008083FE01E557FE4F808191810197F1F76C
:10166000FE01E557FE4F91838083DE01A357BE4FF5
:10167000FE01E357FE4F80819181019711969C9363
:101680008E93FE01E357FE4F808191810097D1F642
:1016900027C08E0103571E4FFE01E157FE4F6081A8
:1016A0007181828193810E944100DC01CB01F801AC
:1016B00091838083DE01A757BE4FFE01E357FE4FA3
:1016C000808191818D939C93FE01E757FE4F80812D
:1016D00091810197F1F7FE01E757FE4F91838083D7
:1016E000FE01EB57FE4F80E090E0A8ECB2E480836F
:1016F0009183A283B3838E010F571E4FFE01EB57D8
:10170000FE4F608171818281938120E030E04AEF59
:1017100054E40E941702DC01CB01F801808391831D
:10172000A283B383FE01EF57FE4F608171818281F6
:10173000938120E030E040E85FE30E94710388235A
:1017400044F4FE01E158FE4F81E090E091838083F4
:1017500064C0FE01EF57FE4F6081718182819381E9
:1017600020E03FEF4FE757E40E94110318160CF0FA
:1017700043C0FE01EB57FE4F6081718182819381EE
:1017800020E030E040E251E40E941702DC01CB018E
:101790008E0101581E4FBC01CD010E944100DC01A9
:1017A000CB01F801918380831FC0FE01E358FE4FF7
:1017B00088EC90E091838083FE01E358FE4F8081A6
:1017C00091810197F1F7FE01E358FE4F91838083E9
:1017D000DE01A158BE4FFE01E158FE4F808191818C
:1017E000019711969C938E93FE01E158FE4F8081E4
:1017F00091810097D1F627C08E0101581E4FFE013E
:10180000EF57FE4F60817181828193810E94410078
:10181000DC01CB01F80191838083DE01A558BE4F26
:10182000FE01E158FE4F808191818D939C93FE01D2
:10183000E558FE4F808191810197F1F7FE01E5584F
:10184000FE4F91838083E2E3F0E081E08083FE013C
:10185000E958FE4F80E090E0A8ECB2E480839183E9
:10186000A283B3838E010D581E4FFE01E958FE4F2F
:10187000608171818281938120E030E04AEF54E4FD
:101880000E941702DC01CB01F80180839183A283BF
:10189000B383FE01ED58FE4F608171818281938197
:1018A00020E030E040E85FE30E947103882344F4C5
:1018B000FE01EF58FE4F81E090E09183808364C089
:1018C000FE01ED58FE4F608171818281938120E09D
:1018D0003FEF4FE757E40E94110318160CF043C086
:1018E000FE01E958FE4F608171818281938120E081
:1018F00030E040E251E40E941702DC01CB018E018E
:101900000F581E4FBC01CD010E944100DC01CB01EC
:10191000F801918380831FC0FE01E159FE4F88ECDE
:1019200090E091838083FE01E159FE4F8081918197
:101930000197F1F7FE01E159FE4F91838083DE01AB
:10194000AF58BE4FFE01EF58FE4F80819181019745
:1019500011969C938E93FE01EF58FE4F80819181EA
:101960000097D1F627C08E010F581E4FFE01ED588B
:10197000FE4F60817181828193810E944100DC0170
:10198000CB01F80191838083DE01A359BE4FFE0194
:10199000EF58FE4F808191818D939C93FE01E35916
:1019A000FE4F808191810197F1F7FE01E359FE4FCF
:1019B00091838083E2E3F0E082E08083FE01E759D7
:1019C000FE4F80E090E0A8ECB2E480839183A28394
:1019D000B3838E010B591E4FFE01E759FE4F608104
:1019E00071818281938120E030E04AEF54E40E94CB
:1019F0001702DC01CB01F80180839183A283B383BA
:101A0000FE01EB59FE4F608171818281938120E05C
:101A100030E040E85FE30E947103882344F4FE0154
:101A2000ED59FE4F81E090E09183808364C0FE0118
:101A3000EB59FE4F608171818281938120E03FEFFD
:101A40004FE757E40E94110318160CF043C0FE0143
:101A5000E759FE4F608171818281938120E030E0FF
:101A600040E251E40E941702DC01CB018E010D59C6
:101A70001E4FBC01CD010E944100DC01CB01F801E9
:101A8000918380831FC0FE01EF59FE4F88EC90E0E8
:101A900091838083FE01EF59FE4F808191810197F0
:101AA000F1F7FE01EF59FE4F91838083DE01AD59BE
:101AB000BE4FFE01ED59FE4F808191810197119635
:101AC0009C938E93FE01ED59FE4F8081918100978A
:101AD000D1F627C08E010D591E4FFE01EB59FE4F66
:101AE00060817181828193810E944100DC01CB0180
:101AF000F80191838083DE01A15ABE4FFE01ED59AA
:101B0000FE4F808191818D939C93FE01E15AFE4F9F
:101B1000808191810197F1F7FE01E15AFE4F918397
:101B20008083E2E3F0E084E08083FE01E55AFE4F2B
:101B300080E090E0A8ECB2E480839183A283B38339
:101B40008E01095A1E4FFE01E55AFE4F60817181D8
:101B50008281938120E030E04AEF54E40E94170232
:101B6000DC01CB01F80180839183A283B383FE0162
:101B7000E95AFE4F608171818281938120E030E0DB
:101B800040E85FE30E947103882344F4FE01EB5AAE
:101B9000FE4F81E090E09183808364C0FE01E95AAA
:101BA000FE4F608171818281938120E03FEF4FE79A
:101BB00057E40E94110318160CF043C0FE01E55AC9
:101BC000FE4F608171818281938120E030E040E2AC
:101BD00051E40E941702DC01CB018E010B5A1E4F0B
:101BE000BC01CD010E944100DC01CB01F8019183D1
:101BF00080831FC0FE01ED5AFE4F88EC90E0918378
:101C00008083FE01ED5AFE4F808191810197F1F7AB
:101C1000FE01ED5AFE4F91838083DE01AB5ABE4F29
:101C2000FE01EB5AFE4F80819181019711969C93A2
:101C30008E93FE01EB5AFE4F808191810097D1F681
:101C400027C08E010B5A1E4FFE01E95AFE4F6081DC
:101C50007181828193810E944100DC01CB01F801F6
:101C600091838083DE01AF5ABE4FFE01EB5AFE4FD7
:101C7000808191818D939C93FE01EF5AFE4F80816C
:101C800091810197F1F7FE01EF5AFE4F9183808316
:101C9000E2E3F0E088E08083FE01E35BFE4F80E05A
:101CA00090E0A8ECB2E480839183A283B3838E0199
:101CB000075B1E4FFE01E35BFE4F608171818281F5
:101CC000938120E030E04AEF54E40E941702DC01E7
:101CD000CB01F80180839183A283B383FE01E75B8C
:101CE000FE4F608171818281938120E030E040E885
:101CF0005FE30E947103882344F4FE01E95BFE4F19
:101D000081E090E09183808364C0FE01E75BFE4F39
:101D1000608171818281938120E03FEF4FE757E43A
:101D20000E94110318160CF043C0FE01E35BFE4F46
:101D3000608171818281938120E030E040E251E452
:101D40000E941702DC01CB018E01095B1E4FBC0112
:101D5000CD010E944100DC01CB01F8019183808319
:101D60001FC0FE01EB5BFE4F88EC90E09183808307
:101D7000FE01EB5BFE4F808191810197F1F7FE013F
:101D8000EB5BFE4F91838083DE01A95BBE4FFE01BA
:101D9000E95BFE4F80819181019711969C938E9310
:101DA000FE01E95BFE4F808191810097D1F627C04B
:101DB0008E01095B1E4FFE01E75BFE4F6081718162
:101DC000828193810E944100DC01CB01F801918363
:101DD0008083DE01AD5BBE4FFE01E95BFE4F80817B
:101DE00091818D939C93FE01ED5BFE4F80819181EB
:101DF0000197F1F7FE01ED5BFE4F91838083E2E3F3
:101E0000F0E080E18083FE01E15CFE4F80E090E045
:101E1000A8ECB2E480839183A283B3838E01055C36
:101E20001E4FFE01E15CFE4F6081718182819381D2
:101E300020E030E04AEF54E40E941702DC01CB01BD
:101E4000F80180839183A283B383FE01E55CFE4F9A
:101E5000608171818281938120E030E040E85FE31E
:101E60000E947103882344F4FE01E75CFE4F81E089
:101E700090E09183808364C0FE01E55CFE4F608149
:101E800071818281938120E03FEF4FE757E40E9408
:101E9000110318160CF043C0FE01E15CFE4F608197
:101EA00071818281938120E030E040E251E40E9420
:101EB0001702DC01CB018E01075C1E4FBC01CD0176
:101EC0000E944100DC01CB01F801918380831FC097
:101ED000FE01E95CFE4F88EC90E091838083FE0177
:101EE000E95CFE4F808191810197F1F7FE01E95C89
:101EF000FE4F91838083DE01A75CBE4FFE01E75C4D
:101F0000FE4F80819181019711969C938E93FE01E3
:101F1000E75CFE4F808191810097D1F627C08E014A
:101F2000075C1E4FFE01E55CFE4F6081718182817E
:101F300093810E944100DC01CB01F80191838083F1
:101F4000DE01AB5CBE4FFE01E75CFE4F80819181FC
:101F50008D939C93FE01EB5CFE4F808191810197F4
:101F6000F1F7FE01EB5CFE4F91838083E2E3F0E04A
:101F700080E28083FE01EF5CFE4F80E090E0A8EC01
:101F8000B2E480839183A283B3838E01035D1E4FED
:101F9000FE01EF5CFE4F608171818281938120E0C0
:101FA00030E04AEF54E40E941702DC01CB01F80153
:101FB00080839183A283B383FE01E35DFE4F608142
:101FC00071818281938120E030E040E85FE30E94EC
:101FD0007103882344F4FE01E55DFE4F81E090E04B
:101FE0009183808364C0FE01E35DFE4F6081718157
:101FF0008281938120E03FEF4FE757E40E94110375
:1020000018160CF043C0FE01EF5CFE4F6081718139
:102010008281938120E030E040E251E40E94170287
:10202000DC01CB018E01055D1E4FBC01CD010E947C
:102030004100DC01CB01F801918380831FC0FE01C8
:10204000E75DFE4F88EC90E091838083FE01E75DC1
:10205000FE4F808191810197F1F7FE01E75DFE4F10
:1020600091838083DE01A55DBE4FFE01E55DFE4FDD
:1020700080819181019711969C938E93FE01E55D7D
:10208000FE4F808191810097D1F627C08E01055DBA
:102090001E4FFE01E35DFE4F60817181828193815D
:1020A0000E944100DC01CB01F80191838083DE01B5
:1020B000A95DBE4FFE01E55DFE4F808191818D934C
:1020C0009C93FE01E95DFE4F808191810197F1F7BC
:1020D000FE01E95DFE4F91838083E2E3F0E080E45E
:1020E0008083FE01ED5DFE4F80E090E0A8ECB2E45D
:1020F00080839183A283B3838E01015E1E4FFE0114
:10210000ED5DFE4F608171818281938120E030E03E
:102110004AEF54E40E941702DC01CB01F8018083EE
:102120009183A283B383FE01E15EFE4F60817181E2
:102130008281938120E030E040E85FE30E947103F8
:10214000882344F4FE01E35EFE4F81E090E091833A
:10215000808364C0FE01E15EFE4F608171818281F7
:10216000938120E03FEF4FE757E40E9411031816D8
:102170000CF043C0FE01ED5DFE4F608171818281F4
:10218000938120E030E040E251E40E941702DC013C
:10219000CB018E01035E1E4FBC01CD010E944100A8
:1021A000DC01CB01F801918380831FC0FE01E55E55
:1021B000FE4F88EC90E091838083FE01E55EFE4F48
:1021C000808191810197F1F7FE01E55EFE4F9183D9
:1021D0008083DE01A35EBE4FFE01E35EFE4F808181
:1021E0009181019711969C938E93FE01E35EFE4FC1
:1021F000808191810097D1F627C08E01035E1E4F2A
:10220000FE01E15EFE4F60817181828193810E94B7
:102210004100DC01CB01F80191838083DE01A75EE0
:10222000BE4FFE01E35EFE4F808191818D939C93B2
:10223000FE01E75EFE4F808191810197F1F7FE017B
:10224000E75EFE4F91838083E2E3F0E080E88083E5
:10225000FE01EB5EFE4F80E090E0A8ECB2E48083EC
:102260009183A283B3838E010F5E1E4FFE01EB5E4E
:10227000FE4F608171818281938120E030E04AEFDE
:1022800054E40E941702DC01CB01F80180839183A2
:10229000A283B383FE01EF5EFE4F60817181828174
:1022A000938120E030E040E85FE30E9471038823DF
:1022B00044F4FE01E15FFE4F81E090E09183808372
:1022C00064C0FE01EF5EFE4F608171818281938167
:1022D00020E03FEF4FE757E40E94110318160CF07F
:1022E00043C0FE01EB5EFE4F60817181828193816C
:1022F00020E030E040E251E40E941702DC01CB0113
:102300008E01015F1E4FBC01CD010E944100DC0126
:10231000CB01F801918380831FC0FE01E35FFE4F74
:1023200088EC90E091838083FE01E35FFE4F808123
:1023300091810197F1F7FE01E35FFE4F9183808366
:10234000DE01A15FBE4FFE01E15FFE4F8081918102
:10235000019711969C938E93FE01E15FFE4F808161
:1023600091810097D1F627C08E01015F1E4FFE01BB
:10237000EF5EFE4F60817181828193810E944100F6
:10238000DC01CB01F80191838083DE01A55FBE4FA4
:10239000FE01E15FFE4F808191818D939C93FE0150
:1023A000E55FFE4F808191810197F1F7FE01E55FC6
:1023B000FE4F91838083FE01E95FFE4F80E090E055
:1023C000A8ECB2E480839183A283B3838E010D5F76
:1023D0001E4FFE01E95FFE4F608171818281938112
:1023E00020E030E04AEF54E40E941702DC01CB0108
:1023F000F80180839183A283B383FE01ED5FFE4FDA
:10240000608171818281938120E030E040E85FE368
:102410000E947103882344F4FE01EF5FFE4F81E0C8
:1024200090E09183808364C0FE01ED5FFE4F608188
:1024300071818281938120E03FEF4FE757E40E9452
:10244000110318160CF043C0FE01E95FFE4F6081D6
:1024500071818281938120E030E040E251E40E946A
:102460001702DC01CB018E010F5F1E4FBC01CD01B5
:102470000E944100DC01CB01F801918380831FC0E1
:10248000FE01E150FF4F88EC90E091838083FE01D4
:10249000E150FF4F808191810197F1F7FE01E150FA
:1024A000FF4F91838083DE01AF5FBE4FFE01EF5F80
:1024B000FE4F80819181019711969C938E93FE012E
:1024C000EF5FFE4F808191810097D1F627C08E018A
:1024D0000F5F1E4FFE01ED5FFE4F608171818281B3
:1024E00093810E944100DC01CB01F801918380833C
:1024F000DE01A350BF4FFE01EF5FFE4F808191814F
:102500008D939C93FE01E350FF4F80819181019751
:10251000F1F7FE01E350FF4F91838083E8E3F0E0A1
:1025200081E08083FE01E750FF4F80E090E0A8EC5F
:10253000B2E480839183A283B3838E010B501F4F3B
:10254000FE01E750FF4F608171818281938120E01D
:1025500030E04AEF54E40E941702DC01CB01F8019D
:1025600080839183A283B383FE01EB50FF4F608190
:1025700071818281938120E030E040E85FE30E9436
:102580007103882344F4FE01ED50FF4F81E090E099
:102590009183808364C0FE01EB50FF4F60817181A5
:1025A0008281938120E03FEF4FE757E40E941103BF
:1025B00018160CF043C0FE01E750FF4F6081718197
:1025C0008281938120E030E040E251E40E941702D2
:1025D000DC01CB018E010D501F4FBC01CD010E94CB
:1025E0004100DC01CB01F801918380831FC0FE0113
:1025F000EF50FF4F88EC90E091838083FE01EF5015
:10260000FF4F808191810197F1F7FE01EF50FF4F5D
:1026100091838083DE01AD50BF4FFE01ED50FF4F2F
:1026200080819181019711969C938E93FE01ED50CC
:10263000FF4F808191810097D1F627C08E010D5008
:102640001F4FFE01EB50FF4F6081718182819381AA
:102650000E944100DC01CB01F80191838083DE01FF
:10266000A151BF4FFE01ED50FF4F808191818D93AD
:102670009C93FE01E151FF4F808191810197F1F719
:10268000FE01E151FF4F91838083E8E3F0E082E0B7
:102690008083FE01E551FF4F80E090E0A8ECB2E4BA
:1026A00080839183A283B3838E0109511F4FFE0162
:1026B000E551FF4F608171818281938120E030E09C
:1026C0004AEF54E40E941702DC01CB01F801808339
:1026D0009183A283B383FE01E951FF4F6081718131
:1026E0008281938120E030E040E85FE30E94710343
:1026F000882344F4FE01EB51FF4F81E090E0918389
:10270000808364C0FE01E951FF4F60817181828145
:10271000938120E03FEF4FE757E40E941103181622
:102720000CF043C0FE01E551FF4F60817181828151
:10273000938120E030E040E251E40E941702DC0186
:10274000CB018E010B511F4FBC01CD010E944100F6
:10275000DC01CB01F801918380831FC0FE01ED51A4
:10276000FF4F88EC90E091838083FE01ED51FF4F95
:10277000808191810197F1F7FE01ED51FF4F918327
:102780008083DE01AB51BF4FFE01EB51FF4F8081D3
:102790009181019711969C938E93FE01EB51FF4F0F
:1027A000808191810097D1F627C08E010B511F4F78
:1027B000FE01E951FF4F60817181828193810E9406
:1027C0004100DC01CB01F80191838083DE01AF5130
:1027D000BF4FFE01EB51FF4F808191818D939C9300
:1027E000FE01EF51FF4F808191810197F1F7FE01CA
:1027F000EF51FF4F91838083E8E3F0E084E0808332
:10280000FE01E352FF4F80E090E0A8ECB2E4808349
:102810009183A283B3838E0107521F4FFE01E352BF
:10282000FF4F608171818281938120E030E04AEF27
:1028300054E40E941702DC01CB01F80180839183EC
:10284000A283B383FE01E752FF4F608171818281D1
:10285000938120E030E040E85FE30E947103882329
:1028600044F4FE01E952FF4F81E090E091838083C0
:1028700064C0FE01E752FF4F6081718182819381C4
:1028800020E03FEF4FE757E40E94110318160CF0C9
:1028900043C0FE01E352FF4F6081718182819381C9
:1028A00020E030E040E251E40E941702DC01CB015D
:1028B0008E0109521F4FBC01CD010E944100DC0175
:1028C000CB01F801918380831FC0FE01EB52FF4FC3
:1028D00088EC90E091838083FE01EB52FF4F808172
:1028E00091810197F1F7FE01EB52FF4F91838083B5
:1028F000DE01A952BF4FFE01E952FF4F8081918155
:10290000019711969C938E93FE01E952FF4F8081AF
:1029100091810097D1F627C08E0109521F4FFE0109
:10292000E752FF4F60817181828193810E94410053
:10293000DC01CB01F80191838083DE01AD52BF4FF2
:10294000FE01E952FF4F808191818D939C93FE019E
:10295000ED52FF4F808191810197F1F7FE01ED5219
:10296000FF4F91838083E8E3F0E088E08083FE01FD
:10297000E153FF4F80E090E0A8ECB2E480839183C4
:10298000A283B3838E0105531F4FFE01E153FF4F16
:10299000608171818281938120E030E04AEF54E4CC
:1029A0000E941702DC01CB01F80180839183A2838E
:1029B000B383FE01E553FF4F608171818281938172
:1029C00020E030E040E85FE30E947103882344F494
:1029D000FE01E753FF4F81E090E09183808364C064
:1029E000FE01E553FF4F608171818281938120E078
:1029F0003FEF4FE757E40E94110318160CF043C055
:102A0000FE01E153FF4F608171818281938120E05B
:102A100030E040E251E40E941702DC01CB018E015C
:102A200007531F4FBC01CD010E944100DC01CB01C7
:102A3000F801918380831FC0FE01E953FF4F88ECAA
:102A400090E091838083FE01E953FF4F8081918163
:102A50000197F1F7FE01E953FF4F91838083DE0177
:102A6000A753BF4FFE01E753FF4F8081918101972C
:102A700011969C938E93FE01E753FF4F80819181C5
:102A80000097D1F627C08E0107531F4FFE01E55373
:102A9000FF4F60817181828193810E944100DC013E
:102AA000CB01F80191838083DE01AB53BF4FFE0160
:102AB000E753FF4F808191818D939C93FE01EB53EF
:102AC000FF4F808191810197F1F7FE01EB53FF4F9A
:102AD00091838083E8E3F0E080E18083FE01EF539F
:102AE000FF4F80E090E0A8ECB2E480839183A28362
:102AF000B3838E0103541F4FFE01EF53FF4F6081DC
:102B000071818281938120E030E04AEF54E40E9499
:102B10001702DC01CB01F80180839183A283B38388
:102B2000FE01E354FF4F608171818281938120E037
:102B300030E040E85FE30E947103882344F4FE0123
:102B4000E554FF4F81E090E09183808364C0FE01F3
:102B5000E354FF4F608171818281938120E03FEFD8
:102B60004FE757E40E94110318160CF043C0FE0112
:102B7000EF53FF4F608171818281938120E030E0CB
:102B800040E251E40E941702DC01CB018E010554A2
:102B90001F4FBC01CD010E944100DC01CB01F801B7
:102BA000918380831FC0FE01E754FF4F88EC90E0C3
:102BB00091838083FE01E754FF4F808191810197CB
:102BC000F1F7FE01E754FF4F91838083DE01A554A6
:102BD000BF4FFE01E554FF4F80819181019711960F
:102BE0009C938E93FE01E554FF4F80819181009765
:102BF000D1F627C08E0105541F4FFE01E354FF4F4D
:102C000060817181828193810E944100DC01CB014E
:102C1000F80191838083DE01A954BF4FFE01E55482
:102C2000FF4F808191818D939C93FE01E954FF4F6A
:102C3000808191810197F1F7FE01E954FF4F918363
:102C40008083E8E3F0E080E28083FE01ED54FF4FF3
:102C500080E090E0A8ECB2E480839183A283B38308
:102C60008E0101551F4FFE01ED54FF4F60817181B0
:102C70008281938120E030E04AEF54E40E94170201
:102C8000DC01CB01F80180839183A283B383FE0131
:102C9000E155FF4F608171818281938120E030E0B6
:102CA00040E85FE30E947103882344F4FE01E3558A
:102CB000FF4F81E090E09183808364C0FE01E15585
:102CC000FF4F608171818281938120E03FEF4FE768
:102CD00057E40E94110318160CF043C0FE01ED5496
:102CE000FF4F608171818281938120E030E040E27A
:102CF00051E40E941702DC01CB018E0103551F4FE6
:102D0000BC01CD010E944100DC01CB01F80191839F
:102D100080831FC0FE01E555FF4F88EC90E0918352
:102D20008083FE01E555FF4F808191810197F1F786
:102D3000FE01E555FF4F91838083DE01A355BF4F10
:102D4000FE01E355FF4F80819181019711969C937D
:102D50008E93FE01E355FF4F808191810097D1F65C
:102D600027C08E0103551F4FFE01E155FF4F6081C3
:102D70007181828193810E944100DC01CB01F801C5
:102D800091838083DE01A755BF4FFE01E355FF4FBE
:102D9000808191818D939C93FE01E755FF4F808147
:102DA00091810197F1F7FE01E755FF4F91838083F1
:102DB000E8E3F0E080E48083FE01EB55FF4F80E024
:102DC00090E0A8ECB2E480839183A283B3838E0168
:102DD0000F551F4FFE01EB55FF4F608171818281BE
:102DE000938120E030E04AEF54E40E941702DC01B6
:102DF000CB01F80180839183A283B383FE01EF5559
:102E0000FF4F608171818281938120E030E040E852
:102E10005FE30E947103882344F4FE01E156FF4FF3
:102E200081E090E09183808364C0FE01EF55FF4F05
:102E3000608171818281938120E03FEF4FE757E409
:102E40000E94110318160CF043C0FE01EB55FF4F12
:102E5000608171818281938120E030E040E251E421
:102E60000E941702DC01CB018E0101561F4FBC01ED
:102E7000CD010E944100DC01CB01F80191838083E8
:102E80001FC0FE01E356FF4F88EC90E091838083E2
:102E9000FE01E356FF4F808191810197F1F7FE011A
:102EA000E356FF4F91838083DE01A156BF4FFE01A1
:102EB000E156FF4F80819181019711969C938E93EB
:102EC000FE01E156FF4F808191810097D1F627C026
:102ED0008E0101561F4FFE01EF55FF4F608171813A
:102EE000828193810E944100DC01CB01F801918332
:102EF0008083DE01A556BF4FFE01E156FF4F808162
:102F000091818D939C93FE01E556FF4F80819181C5
:102F10000197F1F7FE01E556FF4F91838083E8E3C7
:102F2000F0E080E88083FE01E956FF4F80E090E00A
:102F3000A8ECB2E480839183A283B3838E010D5603
:102F40001F4FFE01E956FF4F60817181828193819D
:102F500020E030E04AEF54E40E941702DC01CB018C
:102F6000F80180839183A283B383FE01ED56FF4F66
:102F7000608171818281938120E030E040E85FE3ED
:102F80000E947103882344F4FE01EF56FF4F81E055
:102F900090E09183808364C0FE01ED56FF4F608115
:102FA00071818281938120E03FEF4FE757E40E94D7
:102FB000110318160CF043C0FE01E956FF4F608163
:102FC00071818281938120E030E040E251E40E94EF
:102FD0001702DC01CB018E010F561F4FBC01CD0142
:102FE0000E944100DC01CB01F801918380831FC066
:102FF000FE01E157FF4F88EC90E091838083FE0152
:10300000E157FF4F808191810197F1F7FE01E15770
:10301000FF4F91838083DE01AF56BF4FFE01EF5615
:10302000FF4F80819181019711969C938E93FE01B1
:10303000EF56FF4F808191810097D1F627C08E0116
:103040000F561F4FFE01ED56FF4F60817181828147
:1030500093810E944100DC01CB01F80191838083C0
:10306000DE01A357BF4FFE01EF56FF4F80819181D4
:103070008D939C93FE01E357FF4F808191810197CF
:10308000F1F7FE01E357FF4F91838083FE01E7577D
:10309000FF4F80E090E0A8ECB2E480839183A283AC
:1030A000B3838E010B571F4FFE01E757FF4F60811F
:1030B00071818281938120E030E04AEF54E40E94E4
:1030C0001702DC01CB01F80180839183A283B383D3
:1030D000FE01EB57FF4F608171818281938120E077
:1030E00030E040E85FE30E947103882344F4FE016E
:1030F000ED57FF4F81E090E09183808364C0FE0133
:10310000EB57FF4F608171818281938120E03FEF17
:103110004FE757E40E94110318160CF043C0FE015C
:10312000E757FF4F608171818281938120E030E019
:1031300040E251E40E941702DC01CB018E010D57E1
:103140001F4FBC01CD010E944100DC01CB01F80101
:10315000918380831FC0FE01EF57FF4F88EC90E002
:1031600091838083FE01EF57FF4F8081918101970A
:10317000F1F7FE01EF57FF4F91838083DE01AD57DA
:10318000BF4FFE01ED57FF4F80819181019711964E
:103190009C938E93FE01ED57FF4F808191810097A4
:1031A000D1F627C08E010D571F4FFE01EB57FF4F81
:1031B00060817181828193810E944100DC01CB0199
:1031C000F80191838083DE01A158BF4FFE01ED57C6
:1031D000FF4F808191818D939C93FE01E158FF4FB9
:1031E000808191810197F1F7FE01E158FF4F9183B2
:1031F0008083E5E3F0E081E08083FE01E558FF4F46
:1032000080E090E0A8ECB2E480839183A283B38352
:103210008E0109581F4FFE01E558FF4F60817181F3
:103220008281938120E030E04AEF54E40E9417024B
:10323000DC01CB01F80180839183A283B383FE017B
:10324000E958FF4F608171818281938120E030E0F5
:1032500040E85FE30E947103882344F4FE01EB58C9
:10326000FF4F81E090E09183808364C0FE01E958C4
:10327000FF4F608171818281938120E03FEF4FE7B2
:1032800057E40E94110318160CF043C0FE01E558E4
:10329000FF4F608171818281938120E030E040E2C4
:1032A00051E40E941702DC01CB018E010B581F4F25
:1032B000BC01CD010E944100DC01CB01F8019183EA
:1032C00080831FC0FE01ED58FF4F88EC90E0918392
:1032D0008083FE01ED58FF4F808191810197F1F7C6
:1032E000FE01ED58FF4F91838083DE01AB58BF4F45
:1032F000FE01EB58FF4F80819181019711969C93BD
:103300008E93FE01EB58FF4F808191810097D1F69B
:1033100027C08E010B581F4FFE01E958FF4F6081F7
:103320007181828193810E944100DC01CB01F8010F
:1033300091838083DE01AF58BF4FFE01EB58FF4FF2
:10334000808191818D939C93FE01EF58FF4F808186
:1033500091810197F1F7FE01EF58FF4F9183808330
:10336000E5E3F0E082E08083FE01E359FF4F80E077
:1033700090E0A8ECB2E480839183A283B3838E01B2
:1033800007591F4FFE01E359FF4F60817181828110
:10339000938120E030E04AEF54E40E941702DC0100
:1033A000CB01F80180839183A283B383FE01E759A7
:1033B000FF4F608171818281938120E030E040E89D
:1033C0005FE30E947103882344F4FE01E959FF4F33
:1033D00081E090E09183808364C0FE01E759FF4F54
:1033E000608171818281938120E03FEF4FE757E454
:1033F0000E94110318160CF043C0FE01E359FF4F61
:10340000608171818281938120E030E040E251E46B
:103410000E941702DC01CB018E0109591F4FBC012C
:10342000CD010E944100DC01CB01F8019183808332
:103430001FC0FE01EB59FF4F88EC90E09183808321
:10344000FE01EB59FF4F808191810197F1F7FE0159
:10345000EB59FF4F91838083DE01A959BF4FFE01D5
:10346000E959FF4F80819181019711969C938E932A
:10347000FE01E959FF4F808191810097D1F627C065
:103480008E0109591F4FFE01E759FF4F608171817D
:10349000828193810E944100DC01CB01F80191837C
:1034A0008083DE01AD59BF4FFE01E959FF4F808196
:1034B00091818D939C93FE01ED59FF4F8081918105
:1034C0000197F1F7FE01ED59FF4F91838083E5E30A
:1034D000F0E084E08083FE01E15AFF4F80E090E05D
:1034E000A8ECB2E480839183A283B3838E01055A52
:1034F0001F4FFE01E15AFF4F6081718182819381EC
:1035000020E030E04AEF54E40E941702DC01CB01D6
:10351000F80180839183A283B383FE01E55AFF4FB4
:10352000608171818281938120E030E040E85FE337
:103530000E947103882344F4FE01E75AFF4F81E0A3
:1035400090E09183808364C0FE01E55AFF4F608163
:1035500071818281938120E03FEF4FE757E40E9421
:10356000110318160CF043C0FE01E15AFF4F6081B1
:1035700071818281938120E030E040E251E40E9439
:103580001702DC01CB018E01075A1F4FBC01CD0190
:103590000E944100DC01CB01F801918380831FC0B0
:1035A000FE01E95AFF4F88EC90E091838083FE0191
:1035B000E95AFF4F808191810197F1F7FE01E95AA5
:1035C000FF4F91838083DE01A75ABF4FFE01E75A68
:1035D000FF4F80819181019711969C938E93FE01FC
:1035E000E75AFF4F808191810097D1F627C08E0165
:1035F000075A1F4FFE01E55AFF4F6081718182819A
:1036000093810E944100DC01CB01F801918380830A
:10361000DE01AB5ABF4FFE01E75AFF4F8081918117
:103620008D939C93FE01EB5AFF4F8081918101970E
:10363000F1F7FE01EB5AFF4F91838083E5E3F0E061
:1036400088E08083FE01EF5AFF4F80E090E0A8EC15
:10365000B2E480839183A283B3838E01035B1F4F07
:10366000FE01EF5AFF4F608171818281938120E0DA
:1036700030E04AEF54E40E941702DC01CB01F8016C
:1036800080839183A283B383FE01E35BFF4F60815C
:1036900071818281938120E030E040E85FE30E9405
:1036A0007103882344F4FE01E55BFF4F81E090E065
:1036B0009183808364C0FE01E35BFF4F6081718171
:1036C0008281938120E03FEF4FE757E40E9411038E
:1036D00018160CF043C0FE01EF5AFF4F6081718154
:1036E0008281938120E030E040E251E40E941702A1
:1036F000DC01CB018E01055B1F4FBC01CD010E9497
:103700004100DC01CB01F801918380831FC0FE01E1
:10371000E75BFF4F88EC90E091838083FE01E75BDD
:10372000FF4F808191810197F1F7FE01E75BFF4F29
:1037300091838083DE01A55BBF4FFE01E55BFF4FF8
:1037400080819181019711969C938E93FE01E55B98
:10375000FF4F808191810097D1F627C08E01055BD4
:103760001F4FFE01E35BFF4F608171818281938176
:103770000E944100DC01CB01F80191838083DE01CE
:10378000A95BBF4FFE01E55BFF4F808191818D9367
:103790009C93FE01E95BFF4F808191810197F1F7D6
:1037A000FE01E95BFF4F91838083E5E3F0E080E178
:1037B0008083FE01ED5BFF4F80E090E0A8ECB2E477
:1037C00080839183A283B3838E01015C1F4FFE012E
:1037D000ED5BFF4F608171818281938120E030E059
:1037E0004AEF54E40E941702DC01CB01F801808308
:1037F0009183A283B383FE01FF96608171818281F0
:10380000938120E030E040E85FE30E947103882369
:103810002CF481E090E09EAF8DAF46C0FE01FF9694
:10382000608171818281938120E03FEF4FE757E40F
:103830000E941103181664F5FE01ED5BFF4F6081D5
:1038400071818281938120E030E040E251E40E9466
:103850001702DC01CB01BC01CD010E944100DC015B
:10386000CB019EAF8DAF0FC088EC90E09CAF8BAFCB
:103870008BAD9CAD0197F1F79CAF8BAF8DAD9EAD3D
:1038800001979EAF8DAF8DAD9EAD009769F716C0C5
:10389000FE01FF9660817181828193810E944100C7
:1038A000DC01CB019EAF8DAF8DAD9EAD9AAF89AFE0
:1038B00089AD9AAD0197F1F79AAF89AFE5E3F0E0F2
:1038C00080E2808380E090E0A8ECB2E48DAB9EAB18
:1038D000AFABB8AF6DA97EA98FA998AD20E030E05D
:1038E0004AEF54E40E941702DC01CB0189AB9AAB8A
:1038F000ABABBCAB69A97AA98BA99CA920E030E04D
:1039000040E85FE30E94710388232CF481E090E09B
:1039100098AB8FA73FC069A97AA98BA99CA920E081
:103920003FEF4FE757E40E94110318164CF56DA9BD
:103930007EA98FA998AD20E030E040E251E40E94DA
:103940001702DC01CB01BC01CD010E944100DC016A
:10395000CB0198AB8FA70FC088EC90E09EA78DA7F6
:103960008DA59EA50197F1F79EA78DA78FA598A974
:10397000019798AB8FA78FA598A9009769F714C0F6
:1039800069A97AA98BA99CA90E944100DC01CB01FD
:1039900098AB8FA78FA598A99CA78BA78BA59CA553
:1039A0000197F1F79CA78BA7E5E3F0E080E4808323
:1039B00080E090E0A8ECB2E48FA398A7A9A7BAA7EB
:1039C0006FA178A589A59AA520E030E04AEF54E4DC
:1039D0000E941702DC01CB018BA39CA3ADA3BEA365
:1039E0006BA17CA18DA19EA120E030E040E85FE3C7
:1039F0000E94710388232CF481E090E09AA389A3AC
:103A00003FC06BA17CA18DA19EA120E03FEF4FE7BD
:103A100057E40E94110318164CF56FA178A589A5EB
:103A20009AA520E030E040E251E40E941702DC0158
:103A3000CB01BC01CD010E944100DC01CB019AA366
:103A400089A30FC088EC90E098A38F8F8F8D98A1E9
:103A50000197F1F798A38F8F89A19AA101979AA353
:103A600089A389A19AA1009769F714C06BA17CA1D1
:103A70008DA19EA10E944100DC01CB019AA389A3E4
:103A800089A19AA19E8F8D8F8D8D9E8D0197F1F7C3
:103A90009E8F8D8FE5E3F0E080E8808380E090E00A
:103AA000A8ECB2E4898F9A8FAB8FBC8F698D7A8D29
:103AB0008B8D9C8D20E030E04AEF54E40E94170289
:103AC000DC01CB018D8B9E8BAF8BB88F6D897E898E
:103AD0008F89988D20E030E040E85FE30E94710319
:103AE00088232CF481E090E09C8B8B8B3FC06D8908
:103AF0007E898F89988D20E03FEF4FE757E40E9441
:103B0000110318164CF5698D7A8D8B8D9C8D20E0F4
:103B100030E040E251E40E941702DC01CB01BC011D
:103B2000CD010E944100DC01CB019C8B8B8B0FC02F
:103B300088EC90E09A8B898B89899A890197F1F7B3
:103B40009A8B898B8B899C8901979C8B8B8B8B891A
:103B50009C89009769F714C06D897E898F89988D3B
:103B60000E944100DC01CB019C8B8B8B8B899C8953
:103B7000988B8F878F8598890197F1F7988B8F871E
:103B800080E090E0A8ECB2E48B879C87AD87BE878D
:103B90006B857C858D859E8520E030E04AEF54E47E
:103BA0000E941702DC01CB018F839887A987BA870F
:103BB0006F81788589859A8520E030E040E85FE371
:103BC0000E94710388232CF481E090E09E838D8312
:103BD00040C06F81788589859A8520E03FEF4FE767
:103BE00057E40E941103181654F56B857C858D856A
:103BF0009E8520E030E040E251E40E941702DC01A3
:103C0000CB01BC01CD010E944100DC01CB019E83B0
:103C10008D830FC088EC90E09C838B838B819C818B
:103C20000197F1F79C838B838D819E8101979E8301
:103C30008D838D819E81009769F70C94B8056F8103
:103C4000788589859A850E944100DC01CB019E839D
:103C50008D838D819E819A83898389819A81019741
:103C6000F1F79A8389830C94B8052F923F924F9273
:103C70005F926F927F928F929F92AF92BF92CF92FC
:103C8000DF92EF92FF920F931F93CF93DF93CDB705
:103C9000DEB7CA1BDB0B0FB6F894DEBF0FBECDBF7D
:103CA00009942A88398848885F846E847D848C844E
:103CB0009B84AA84B984C884DF80EE80FD800C8157
:103CC0001B81AA81B981CE0FD11D0FB6F894DEBF3A
:0C3CD0000FBECDBFED010895F894FFCFAA
:083CDC000000000000000000E0
:00000001FF
