:100000000C942A000C9434000C9434000C943400AA
:100010000C9434000C9434000C9434000C94340090
:100020000C9434000C9434000C9434000C94340080
:100030000C9434000C9434000C9434000C94340070
:100040000C9434000C9434000C9434000C94340060
:100050000C94340011241FBECFE5D8E0DEBFCDBF25
:100060000E9433030C9446030C940000DF93CF935B
:10007000CDB7DEB7EAE3F0E01082E7E3F0E010820C
:10008000E4E3F0E087E08083E1E3F0E08EEF80835B
:10009000EBE3F0E01082E8E3F0E01082E5E3F0E06B
:1000A0001082E2E3F0E01082CF91DF910895DF93B8
:1000B000CF93CDB7DEB728970FB6F894DEBF0FBE4B
:1000C000CDBF8A836B834C8319828B81883008F083
:1000D000F6C08C81882309F078C08A81282F30E00F
:1000E00038872F838F8198858230910561F12F8128
:1000F00038852330310534F48F819885813091051E
:1001000069F060C02F8138852330310589F18F81F6
:1001100098858430910509F440C054C0ABE3B0E049
:10012000EBE3F0E08081482F8B81282F30E081E0E5
:1001300090E0022E02C0880F991F0A94E2F7809582
:1001400084238C93BEC0A8E3B0E0E8E3F0E08081B4
:10015000482F8B81282F30E081E090E0022E02C0F2
:10016000880F991F0A94E2F7809584238C93A9C085
:10017000A5E3B0E0E5E3F0E08081482F8B81282FF4
:1001800030E081E090E0022E02C0880F991F0A94AF
:10019000E2F7809584238C9394C0A2E3B0E0E2E37D
:1001A000F0E08081482F8B81282F30E081E090E0C3
:1001B000022E02C0880F991F0A94E2F780958423CB
:1001C0008C937FC081E089837CC08C81813009F071
:1001D00073C08A81282F30E03E832D838D819E81DC
:1001E0008230910551F12D813E812330310534F467
:1001F0008D819E818130910561F05BC02D813E81B2
:100200002330310571F18D819E8184309105E9F1B2
:1002100050C0ABE3B0E0EBE3F0E08081482F8B818E
:10022000282F30E081E090E0022E02C0880F991F55
:100230000A94E2F7842B8C9344C0A8E3B0E0E8E38F
:10024000F0E08081482F8B81282F30E081E090E022
:10025000022E02C0880F991F0A94E2F7842B8C9318
:1002600030C0A5E3B0E0E5E3F0E08081482F8B816A
:10027000282F30E081E090E0022E02C0880F991F05
:100280000A94E2F7842B8C931CC0A2E3B0E0E2E373
:10029000F0E08081482F8B81282F30E081E090E0D2
:1002A000022E02C0880F991F0A94E2F7842B8C93C8
:1002B00008C081E0898305C081E0898302C081E0B4
:1002C0008983898128960FB6F894DEBF0FBECDBF13
:1002D000CF91DF910895DF93CF9300D000D00F929C
:1002E000CDB7DEB78A836B8319828A81282F30E0ED
:1002F0003D832C838C819D8182309105D9F02C81A6
:100300003D812330310534F48C819D81813091050C
:1003100061F01FC02C813D812330310581F08C813B
:100320009D818430910581F014C0EBE3F0E08B8176
:10033000808311C0E8E3F0E08B8180830CC0E5E3AB
:10034000F0E08B81808307C0E2E3F0E08B81808363
:1003500002C081E0898389810F900F900F900F90E8
:100360000F90CF91DF910895DF93CF93CDB7DEB794
:1003700027970FB6F894DEBF0FBECDBF8A836B837D
:100380005D834C8319828B81883008F07CC08C811E
:100390009D81009709F474C08A81282F30E03F8343
:1003A0002E834E815F814230510559F18E819F81AC
:1003B0008330910534F42E813F812130310569F07D
:1003C0005CC04E815F814330510579F18E819F8100
:1003D0008430910509F43DC050C0E9E3F0E080812C
:1003E000282F30E08B81882F90E0A90102C055951D
:1003F00047958A95E2F7CA018170EC81FD8180837F
:1004000044C0E6E3F0E08081282F30E08B81882F24
:1004100090E0A90102C0559547958A95E2F7CA0177
:100420008170EC81FD81808330C0E3E3F0E0808166
:10043000282F30E08B81882F90E0A90102C05595CC
:1004400047958A95E2F7CA018170EC81FD8180832E
:100450001CC0E0E3F0E08081282F30E08B81882F02
:1004600090E0A90102C0559547958A95E2F7CA0127
:100470008170EC81FD81808308C081E0898305C0A3
:1004800081E0898302C081E08983898127960FB644
:10049000F894DEBF0FBECDBFCF91DF910895DF93FB
:1004A000CF9300D000D000D0CDB7DEB78A837C8355
:1004B0006B8319828B819C81009709F43FC08A81EC
:1004C000282F30E03E832D838D819E8182309105DF
:1004D000E9F02D813E812330310534F48D819E81F8
:1004E0008130910561F027C02D813E812330310597
:1004F000A1F08D819E8184309105B1F01CC0E9E3AB
:10050000F0E08081EB81FC8180831AC0E6E3F0E0BB
:100510008081EB81FC81808313C0E3E3F0E0808184
:10052000EB81FC8180830CC0E0E3F0E08081EB8113
:10053000FC81808305C081E0898302C081E08983DA
:10054000898126960FB6F894DEBF0FBECDBFCF913E
:10055000DF910895DF93CF93CDB7DEB7AFE5B0E07D
:10056000EFE5F0E0808180688C93CF91DF91089572
:10057000DF93CF93CDB7DEB7AFE5B0E0EFE5F0E0C6
:1005800080818F778C93CF91DF910895DF93CF9304
:100590000F92CDB7DEB786E88983AAE2B0E0EAE23F
:1005A000F0E080818B7F8C9389818460898389814D
:1005B0008260898389818068898389818F7B89832F
:1005C00089818F7C89838981806289838981877F02
:1005D0008983E0E4F0E089818083E9E2F0E083E36D
:1005E0008083AAE2B0E0EAE2F0E0808180618C934F
:1005F000AAE2B0E0EAE2F0E0808188608C930F909C
:10060000CF91DF910895DF93CF930F92CDB7DEB7EF
:10061000898301C00000EBE2F0E08081829586953D
:100620008770882F90E081709070009799F3ECE2CA
:10063000F0E0898180830F90CF91DF910895DF935F
:10064000CF93CDB7DEB701C00000EBE2F0E08081D0
:10065000881F8827881F8130B9F7ECE2F0E080819D
:10066000CF91DF910895DF93CF930F92CDB7DEB78F
:1006700019820E9436000E94C60281E060E041E0DB
:100680000E9457008FE40E940303FCCFF894FFCF31
:00000001FF
